:1000000000000220311B00005D1B00005D1B000092
:100010005D1B00005D1B00005D1B00005D1B000000
:100020005D1B00005D1B00005D1B00005D1B0000F0
:100030005D1B00005D1B00005D1B00003D02000019
:100040005D1B00005D1B00005D1B00005D1B0000D0
:100050005D1B00005D1B00005D1B00005D1B0000C0
:100060005D1B00005D1B00005D1B00005D1B0000B0
:100070005D1B00005D1B00005D1B00005D1B0000A0
:100080005D1B00005D1B00005D1B00005D1B000090
:100090005D1B00005D1B00005D1B00005D1B000080
:1000A0005D1B00005D1B00005D1B00005D1B000070
:1000B0005D1B00005D1B00005D1B00005D1B000060
:1000C0005D1B00005D1B00005D1B00005D1B000050
:1000D0005D1B00005D1B00005D1B000010B5054CA2
:1000E000237833B9044B13B10448AFF300800123E4
:1000F000237010BD7400002000000000A42900003F
:1001000008B5064B1BB106480649AFF30080064808
:10011000036813B1054B03B1984708BD0000000008
:10012000A4290000780000207000002000000000DA
:10013000154B002B08BF134B9D46A3F5803A0021B9
:100140008B460F461348144A121A02F0EDFA0F4B71
:10015000002B00D098470E4B002B00D09847002072
:10016000002104000D000D48002802D00C48AFF318
:10017000008002F0B3FA2000290000F083F802F0BA
:1001800099FA00BF000008000000022000000000F3
:100190000000000074000020A80000200000000003
:1001A0000000000080B483B000AF03463960FB71EB
:1001B00097F90730002B0BDA0D49FB7903F00F0399
:1001C000043B3A68D2B25201D2B20B441A7609E02B
:1001D000084997F907303A68D2B25201D2B20B44BB
:1001E00083F800230C37BD465DF8047B704700BFE1
:1001F00000ED00E000E100E080B582B000AF786083
:100200007B68013BB3F1807F01D301230FE00A4BF0
:100210007A68013A5A604FF0FF300721FFF7C2FFBA
:10022000054B00229A60044B07221A6000231846EF
:100230000837BD4680BD00BF10E000E080B400AFCD
:10024000044B1B685A1C034B1A60BD465DF8047BC7
:10025000704700BFA000002080B485B000AF786078
:10026000074B1B68FB6000BF054B1A68FB68D21A7E
:100270007B689A42F8D31437BD465DF8047B70471B
:10028000A000002080B582B000AF194800F0E0FA6D
:100290000246184BA3FB02139B091846FFF7ACFF5D
:1002A0000346002B00D0FEE7012001F0BFFD02F065
:1002B000EDF90123FB804FF40043BB8000233B603A
:1002C00011E0BA88FB881344184602F043F9FB8812
:1002D0005B00FB80BB885B08BB803220FFF7BCFF64
:1002E0003B6801333B603B680F2BEADDE1E700BF71
:1002F00050000200D34D621080B483B000AF78602C
:100300003960FEE780B487B000AFF860B9607A600A
:10031000FB6803F10473DA00BB6813449B007B6144
:100320007B697A681A601C37BD465DF8047B7047AC
:1003300080B485B000AF786039607B6803F10473E6
:10034000DA003B6813449B00FB60FB681B6818469F
:100350001437BD465DF8047B704700BF80B584B09C
:1003600000AF78607B68002B03D07B68B3F5004F4B
:1003700004D9084840F2C941FFF7BEFF7B68B3FAD1
:1003800083F3C3F11F03FB60FB6818461037BD46BB
:1003900080BD00BF5427000080B400AF044BDB6C6D
:1003A0001B0EDBB21846BD465DF8047B704700BFEC
:1003B000B081E00F80B400AF054BDB6C03F47F032A
:1003C0001B0CDBB21846BD465DF8047B704700BFCE
:1003D000B081E00F80B582B000AFFFF7EBFF0346BE
:1003E0004A2B04D0792B02D0482B22D023E0164B85
:1003F0001B699BB203F03F039BB21B02FB80124BB5
:100400009B699BB203F0F0039AB2FB881343FB8015
:100410000D4BDB6903F0F0031B099AB2FB88134311
:10042000FB80FB88B3F5017F01D3084B08E0084B44
:1004300006E0074B04E007489A21FFF75DFF002321
:1004400018460837BD4680BDD0FF0FE000366E016C
:100450000048E801A427000080B584B000AF7860B0
:1004600039607A683B689A4294BF00230123DBB26B
:10047000FB6006481E21FA68FFF744FF0448082184
:10048000FA68FFF73FFF1037BD4680BD00800C4083
:1004900004800C4080B582B000AF0B481E21FFF7EE
:1004A00047FF786009480821FFF742FF38607A6803
:1004B0003B689A4203D00648D821FFF71DFF7B68AE
:1004C00018460837BD4680BD00800C4004800C40B3
:1004D000A427000080B582B000AF244B5B6903F411
:1004E000E063B3F5007F1CD0B3F5007F05D8002B87
:1004F00025D0B3F5807F1FD02AE0B3F5C06F24D09C
:10050000B3F5E06F1ED0B3F5407F21D1FFF744FF74
:100510000346122B02D9164B7B6021E0154B7B6002
:100520001EE0FFF739FF0346122B02D9124B7B6006
:1005300016E0124B7B6013E0114B7B6010E0114B17
:100540007B600DE0104B7B600AE0104B7B6007E0A6
:100550000F484FF48D71FFF7CFFE00237B6000BF83
:100560007B6818460837BD4680BD00BF00800C4040
:10057000804F120040420F0040B56400C0CF6A00B7
:10058000C0D8A700809FD500406F4001003FAB015D
:10059000A427000080B582B000AF0F4800F04AFAEF
:1005A0000346FB70FB78072B05D0082B07D101F021
:1005B000FFFA78600BE0FFF78DFF786007E00748EF
:1005C00040F24311FFF798FE00237B6000BF7B6879
:1005D00018460837BD4680BD06000C00A427000061
:1005E00090B585B000AF78600023BB607B683B4A64
:1005F000934208D03A4A934205D03A484FF4F171F9
:10060000FFF77AFE00E000BF786800F013FA0346B7
:10061000FB607B68314A934203D0314A934206D053
:100620000CE0314B9B6A03F00303FB600CE02E4BA4
:100630009B6A03F00C039B08FB6005E029484FF41C
:100640000371FFF759FE00BFFB68032B39D801A2E5
:1006500052F823F08B060000650600006D060000CE
:100660007506000001F02AFBB86032E001F03AFBA9
:10067000B8602EE001F082FA0446FFF70BFF034654
:10068000013324FA03F3BB6023E00023BB607A68E4
:10069000124B9A4203D07A68114B9A4210D1124BF6
:1006A0009A6A79680D4B994201D1102300E0142316
:1006B00022FA03F3002B03D001F00AFBB86008E034
:1006C00007E0084840F23721FFF716FE0023BB6021
:1006D00000BFBB6818461437BD4690BD0200180025
:1006E00003001A00A427000000800C4080B483B0EF
:1006F00000AF7860094B5B6D03F00103002B00D065
:1007000006E000BF054B1A6D7B681340002BF9D142
:100710000C37BD465DF8047B704700BF00800C407D
:1007200080B582B000AF104800F084F90346FB703A
:10073000FB78032B07D0082B09D0022B0BD101F03B
:10074000D1FA78600AE001F0B9FA786006E001F0C9
:100750002FFA786002E000237B6000BF7B681846B8
:100760000837BD4680BD00BF0723200090B587B085
:1007700000AF78600B46FB7000233B617B681B0A6F
:1007800003F00F03013B092B37D801A252F823F0E5
:10079000D5070000DB070000B9070000FB070000D9
:1007A000FB070000E1070000EB070000FB0700006B
:1007B000FB070000F50700001D4B7B611D4800F0A2
:1007C00047F80446FFF706FE034620461946FFF7A2
:1007D00043FE18E0184B7B6115E0184B7B6112E07B
:1007E000174B7B6101233B610DE0164B7B611023AE
:1007F0003B6108E0144B7B6105E014484FF4BD6198
:10080000FFF77AFD10E07B681B0B03F01F03FB6012
:100810003B69002B02D03869FFF768FFFB787869E5
:10082000F9681A46FFF76EFD1C37BD4690BD00BF44
:1008300040800C400043020008800C4044800C4083
:1008400058800C4060800C4078800C40A427000049
:1008500090B585B000AF78607B6803F47813B3F58A
:10086000A01F00F0AB80B3F5A01F1AD8B3F5402F3E
:1008700000F0BF80B3F5402F08D8B3F5003F3CD05F
:10088000B3F5802F2DD0002B27D0BEE0B3F5801F0D
:100890003CD0B3F5901F47D0B3F5602F00F0AD808A
:1008A000B3E0B3F5001F00F0AC80B3F5001F0AD829
:1008B000B3F5C01F25D0B3F5D01F7AD0B3F5B01F64
:1008C00000F08980A1E0B3F5181F4ED0B3F5201FCA
:1008D00062D0B3F5101F35D097E001F069F9F860E8
:1008E0009BE001F065F9F8604E4B9B6803F00F0345
:1008F000FA6822FA03F3FB608FE001F03FF9F86039
:100900008BE04948FFF76CFEF86086E04648FFF749
:1009100067FEF860434B9B6E03F0F0031B09FA6817
:1009200022FA03F3FB6078E03F48FFF759FEF860D6
:100930003C4B9B6E03F470631B0AFA6822FA03F3C4
:10094000FB606AE03848FFF74BFEF860354B9B6E62
:1009500003F440531C0B1020FFF700FD0346234413
:10096000FA6822FA03F3FB6057E02F48FFF738FEDE
:10097000F8602C4B9B6E03F440531B0BFA6822FA71
:1009800003F3FB60274BDB6F03F007030133FA68C7
:10099000B2FBF3F3FB6040E02348FFF721FEF86071
:1009A000204B9B6E03F00303FA6822FA03F3FB600B
:1009B00033E01E48FFF714FEF8602EE01B48FFF7F7
:1009C0000FFEF860174B1B6F03F00303FA6822FA5F
:1009D00003F3FB6021E01548FFF702FEF860114BBE
:1009E0001B6F03F030031B09FA6822FA03F3FB6064
:1009F00013E0FFF7CFFDF8600FE0FFF76BFDF86045
:100A00000BE0FFF78DFEF86007E0094840F2AA61AD
:100A1000FFF772FC0023FB6000BFFB681846143729
:100A2000BD4690BD00800C400200180003001A0073
:100A3000A427000080B584B000AF78600123FB7369
:100A40007B6803F00F03BB60BB68013B062B00F221
:100A5000938001A252F823F0750A0000AB0A00004F
:100A6000E70A0000790B0000790B0000230B00005F
:100A7000450B0000474BDB6A03F47053B3F5805F0E
:100A800009D0B3F5005F03D0B3F5006F06D008E0DE
:100A90000223FB7308E00323FB7305E00423FB73CD
:100AA00002E00523FB7300BF6EE03A4B9B6A03F044
:100AB0000303022B06D0032B07D0012B08D10323FD
:100AC000FB730FE00223FB730CE00623FB7309E0CA
:100AD000304B9B6A03F48033002B02D00923FB7355
:100AE00000E000BF50E02B4B9B6A03F00C03082B87
:100AF00006D00C2B07D0042B08D10323FB730FE087
:100B00000223FB730CE00623FB7309E0214B9B6A75
:100B100003F48013002B02D00923FB7300E000BF15
:100B200032E01C4B1B6803F08053002B03D0B3F161
:100B3000805F03D028E00723FB7302E00823FB73E8
:100B400000BF21E0134BDB6A03F46033B3F5803F51
:100B500008D0B3F5003F08D0B3F5004F08D1082303
:100B6000FB7308E00223FB7305E00323FB7302E041
:100B70000123FB7300BF07E0074840F65211FFF75F
:100B8000BBFB0023FB7300BFFB7B18461037BD4641
:100B900080BD00BF00800C40A427000080B487B057
:100BA00000AFF860B9607A60FB6803F10473DA00A3
:100BB000BB6813449B007B617B697A681A601C37B1
:100BC000BD465DF8047B704780B584B000AF7860A7
:100BD000804B1B68FB60FB6843F08043FB607B68D5
:100BE000DA687B685B78104600211A4600F046FC04
:100BF0007B68DA687B689B78104601211A4600F012
:100C00003DFC7B68DA687B68DB78104602211A4677
:100C100000F034FC7B68DA687B681B79104603219E
:100C20001A4600F02BFC7B68DA687B685B7910461B
:100C300004211A4600F022FC7B68DA687B689B7905
:100C4000104605211A4600F019FC7B68DB6803F0AA
:100C50000203002B29D0FA685F4B1340FB607B68CE
:100C60001B78FA681343FB607B685B7A1B04FA68A5
:100C70001343FB607B689B7A5B04FA681343FB6059
:100C80007B68DB791B06FA681343FB607B681B7A81
:100C90001B03FA681343FB607B6893F84C30002B0E
:100CA00003D0FB6843F48073FB607B68DB6803F070
:100CB0000403002B2AD0FA68484B1340FB607B6882
:100CC0001B789B00FA681343FB607B685B7A9B048C
:100CD000FA681343FB607B689B7ADB04FA68134372
:100CE000FB607B68DB795B06FA681343FB607B681B
:100CF0001B7A5B03FA681343FB607B6893F84C3004
:100D0000002B03D0FB6843F40073FB607B68DB6857
:100D100003F00803002B2AD0FA68314B1340FB6024
:100D20007B681B781B01FA681343FB607B685B7A66
:100D30001B05FA681343FB607B689B7A5B05FA68C6
:100D40001343FB607B68DB799B06FA681343FB6007
:100D50007B681B7A9B03FA681343FB607B6893F8FC
:100D60004C30002B03D0FB6843F48063FB607B684E
:100D7000DB6803F01003002B36D0FA68194B1340E0
:100D8000FB607B681B789B01FA681343FB607B6800
:100D90005B7A9B05FA681343FB607B689B7ADB05F3
:100DA000FA681343FB607B68DB79DB06FA68134360
:100DB000FB607B681B7ADB03FA681343FB607B688C
:100DC00093F84C30002B0FD0FB6843F40063FB60BA
:100DD0000AE000BF00800040FCEEFCFEF3DDF3FD06
:100DE000CFBBCFFB3F773FF77B68D8687B68196A3A
:100DF0007B685A6A7B689B6A00F042F97B68D86816
:100E00007B6893F82C107B6893F82D207B6893F80F
:100E10002E3000F0BBF87B68D8687B68196B7B6864
:100E20005A6B7B689B6B00F003FA7B68D9687B6820
:100E300093F83C207B6893F83D30084611461A46EB
:100E400000F092F97B68D9687B685A697B689B6976
:100E5000084611461A4600F0A9FA7B68DA687B68F2
:100E60001B7F1046194600F057FA2A4BFA681A60A1
:100E70007B681B78032B17D801A252F823F000BF20
:100E80009D0E0000910E0000910E00009D0E0000CE
:100E9000214805210122FFF781FE05E01E480521BA
:100EA0000022FFF77BFE00BF1A4B1A4A526922F458
:100EB00040317A68126C0A435A61164B154A5269DE
:100EC00022F4F8017A68526C0A435A61114B114AB4
:100ED000526922F0E0417A68926C0A435A61FB68D9
:100EE00003F07063002B06D07B68DB790A4807218A
:100EF0001A46FFF753FE084800210122FFF74EFE75
:100F00007B681B691846012100F008F81037BD46C0
:100F100080BD00BF008000401480004080B582B0DA
:100F200000AF78600B46FB707B6803F00203002B78
:100F300005D0FB78144801211A46FFF72FFE7B6885
:100F400003F00403002B05D0FB780F4802211A465A
:100F5000FFF724FE7B6803F00803002B05D0FB7825
:100F6000094803211A46FFF719FE7B6803F01003B6
:100F7000002B05D0FB78044804211A46FFF70EFE2B
:100F80000837BD4680BD00BF1480004080B582B0E8
:100F900000AF7860F970BA707B707B6823F01E0335
:100FA000002B04D0314840F2E221FFF7A5F97B681D
:100FB00003F00203002B11D0FB782D481E211A46A6
:100FC000FFF7ECFDBB782A481D211A46FFF7E6FD26
:100FD0007B7827481C211A46FFF7E0FD7B6803F069
:100FE0000403002B11D0FB7822481E211A46FFF77C
:100FF000D5FDBB781F481D211A46FFF7CFFD7B7832
:101000001C481C211A46FFF7C9FD7B6803F0080342
:10101000002B11D0FB7818481E211A46FFF7BEFDA1
:10102000BB7815481D211A46FFF7B8FD7B7812489A
:101030001C211A46FFF7B2FD7B6803F01003002B5A
:1010400011D0FB780D481E211A46FFF7A7FDBB788B
:101050000A481D211A46FFF7A1FD7B7807481C218D
:101060001A46FFF79BFD0837BD4680BDF4270000F8
:10107000088000401C8000402C8000403C800040E4
:1010800080B586B000AFF860B9607A603B60FB68FD
:1010900023F01E03002B04D0314840F21531FFF736
:1010A0002BF9BB68032B04DD2D484FF44671FFF785
:1010B00023F97B683F2B04DD294840F21931FFF703
:1010C0001BF93B68032B04DD254840F21A31FFF77A
:1010D00013F97B681A02BB681A433B681B0413436D
:1010E0007B61FB6803F00203002B09D01D4A1D4BF6
:1010F0009B6823F0031323F47C5379690B439360BB
:10110000FB6803F00403002B09D0164A154BDB697A
:1011100023F0031323F47C5379690B43D361FB68F9
:1011200003F00803002B09D00E4A0E4BDB6A23F0B4
:10113000031323F47C5379690B43D362FB6803F0F8
:101140001003002B09D0074A064BDB6B23F0031377
:1011500023F47C5379690B43D3631837BD4680BDB4
:10116000F42700000080004080B582B000AF7860B6
:1011700013460A46FA70BB707B6823F01E03002BEF
:1011800004D026484FF45571FFF7B6F87B6803F09A
:101190000203002B0BD0FB7821481D211A46FFF7D4
:1011A000FDFCBB781E481C211A46FFF7F7FC7B6844
:1011B00003F00403002B0BD0FB781A481D211A46BC
:1011C000FFF7ECFCBB7817481C211A46FFF7E6FC3A
:1011D0007B6803F00803002B0BD0FB7812481D211D
:1011E0001A46FFF7DBFCBB780F481C211A46FFF7B5
:1011F000D5FC7B6803F01003002B0BD0FB780B4869
:101200001D211A46FFF7CAFCBB7808481C211A4664
:10121000FFF7C4FC0837BD4680BD00BFF4270000BF
:101220000C80004020800040308000404080004022
:1012300080B586B000AFF860B9607A603B60FB684B
:1012400023F01E03002B04D0314840F28331FFF716
:1012500053F8BB68032B04DD2D4840F28631FFF7BD
:101260004BF87B683F2B04DD294840F28731FFF7BC
:1012700043F83B68032B04DD25484FF46271FFF708
:101280003BF87B681A02BB681A433B681B04134394
:101290007B61FB6803F00203002B09D01D4A1D4B44
:1012A000DB6823F0031323F47C5379690B43D36089
:1012B000FB6803F00403002B09D0164A154B1B6A88
:1012C00023F0031323F47C5379690B431362FB6807
:1012D00003F00803002B09D00E4A0E4B1B6B23F0C2
:1012E000031323F47C5379690B431363FB6803F006
:1012F0001003002B09D0074A064B1B6C23F0031385
:1013000023F47C5379690B4313641837BD4680BDC1
:10131000F42700000080004080B582B000AF786004
:101320000B46FB707B6823F01E03002B04D01A4889
:1013300040F2BF31FEF7E0FF7B6803F00203002BB1
:1013400005D0FB7815481C211A46FFF727FC7B685F
:1013500003F00403002B05D0FB7811481C211A462A
:10136000FFF71CFC7B6803F00803002B05D0FB781B
:101370000C481C211A46FFF711FC7B6803F0100390
:10138000002B05D0FB7808481C211A46FFF706FC05
:101390000837BD4680BD00BFF42700000480004030
:1013A00018800040288000403880004080B586B01A
:1013B00000AFF860B9607A60FB6823F01E03002B71
:1013C00004D02C4840F2E731FEF796FFBB68032BB0
:1013D00004DD284840F2EA31FEF78EFF7B68032BDC
:1013E00004DD244840F2EB31FEF786FF7B681A02E9
:1013F000BB6813437B61FB6803F00203002B09D039
:101400001D4A1D4B5B6823F4407323F00303796985
:101410000B435360FB6803F00403002B09D0164A0A
:10142000154B9B6923F4407323F0030379690B4345
:101430009361FB6803F00803002B09D00E4A0E4BA2
:101440009B6A23F4407323F0030379690B4393628F
:10145000FB6803F01003002B09D0074A064B9B6B77
:1014600023F4407323F0030379690B439363183724
:10147000BD4680BDF42700000080004080B584B0E8
:1014800000AF786013460A46FA70BB700023FB6019
:101490000023BB607B6823F01E03002B04D053485D
:1014A00040F22441FEF728FF98E07B6803F0020336
:1014B000002B03D04E4BBB600223FB607B6803F024
:1014C0000403002B03D04B4BBB600423FB607B6801
:1014D00003F00803002B03D0474BBB600823FB60DD
:1014E0007B6803F01003002B03D0444BBB60102338
:1014F000FB60FB780A2B66D801A252F823F000BFEC
:101500002D1500003B15000049150000571500007F
:101510006515000073150000811500008F1500008F
:101520009D150000AB150000B9150000BB78B86828
:1015300004211A46FFF732FB4BE0BB78B868032161
:101540001A46FFF72BFB44E0BB78B86802211A4625
:10155000FFF724FB3DE0BB78B86801211A46FFF78E
:101560001DFB36E0BB78B86800211A46FFF716FB72
:101570002FE0BB78B86805211A46FFF70FFB28E07B
:10158000BB781F4804211A46FFF708FB21E0BB780F
:101590001B4803211A46FFF701FB1AE0BB781848E5
:1015A00002211A46FFF7FAFA13E0BB78144801212A
:1015B0001A46FFF7F3FA0CE0BB78114800211A46EF
:1015C000FFF7ECFA05E0094840F26941FEF794FEA6
:1015D00000BFFB68DB437A6813407B607B68002BAD
:1015E0007FF463AF1037BD4680BD00BFF427000015
:1015F000108000402480004034800040448000403F
:101600007C80004080B582B000AF03463960FB713A
:10161000FB79002B1FD0FB79012B19D0FB79022B12
:1016200013D0FB79032B0DD0FB79042B07D0FB796A
:10163000052B02D141F6FF730FE000230DE04FF6BA
:10164000FF730AE04FF6FF7307E04FF6FF7304E005
:101650004FF6FF7301E04FF6FF733A68134103F052
:101660000103002B04D10B4840F2C621FEF744FED3
:101670000948FA793B68012101FA03F31946134638
:10168000DB0013449B000344103359600837BD4608
:1016900080BD00BF442800000060004080B582B0DB
:1016A00000AF03463960FB71FB79002B1FD0FB793B
:1016B000012B19D0FB79022B13D0FB79032B0DD012
:1016C000FB79042B07D0FB79052B02D141F6FF7380
:1016D0000FE000230DE04FF6FF730AE04FF6FF73B3
:1016E00007E04FF6FF7304E04FF6FF7301E04FF69B
:1016F000FF733A68134103F00103002B04D10B4838
:1017000040F2F321FEF7F8FD0948FA793B68012120
:1017100001FA03F319461346DB0013449B0003440C
:10172000103319600837BD4680BD00BF4428000053
:101730000060004090B585B000AFB9607B600346A3
:10174000FB731346BB73FB7B002B1FD0FB7B012B72
:1017500019D0FB7B022B13D0FB7B032B0DD0FB7B23
:10176000042B07D0FB7B052B02D141F6FF730FE062
:1017700000230DE04FF6FF730AE04FF6FF7307E01A
:101780004FF6FF7304E04FF6FF7301E04FF6FF736F
:10179000BA68134103F00103002B04D137484FF41A
:1017A0008771FEF7A9FDBB7B002B0DD07B68002B5A
:1017B00005D0FB7B1846B968FFF770FF04E0FB7BA0
:1017C0001846B968FFF71EFFBB68072B1DD82C48C9
:1017D000FA7B2B4CF97B0B46DB000B449B0023442C
:1017E0005968BB689B000F2404FA03F3DB431940DC
:1017F000BC7BBB689B0004FA03F319431346DB0070
:1018000013449B000344596024E01D48FA7B1C4CA0
:10181000F97B0B46DB000B449B002344083319681B
:10182000BB6803F18043083B9B000F2404FA03F3D9
:10183000DB431940BC7BBB6803F18043083B9B0042
:1018400004FA03F319431346DB0013449B000344DB
:1018500008331960BB7B002B0DD17B68002B05D0B2
:10186000FB7B1846B968FFF719FF04E0FB7B1846BD
:10187000B968FFF7C7FE1437BD4690BD9428000035
:101880000060004080B485B000AFF860B9607A6055
:10189000FB681A68BB68DB431A407B681A43FB6825
:1018A0001A601437BD465DF8047B704780B586B07A
:1018B00000AFF860B9607A607B68002B04D12048E3
:1018C00040F2EB11FEF718FDBB68002B03D11D4859
:1018D000FEF7BEFFB860BB685B007B617A687B691E
:1018E0001344013B7B617A697B68B2FBF3F37B6154
:1018F0007B69043B7B617B699B017B617B69C033B6
:101900007B617B6923F0FF037B617B6923F4FF1319
:1019100023F4FE53002B04D0094840F21121FEF7B6
:10192000EBFC7A69084B13407B61FB681433184663
:1019300005497A69FFF7A6FF1837BD4680BD00BF8D
:10194000E428000040810400C0FF1F0080B582B081
:1019500000AF786039607A682E4B9A420CD07A6872
:101960002D4B9A4208D07A682C4B9A4204D02C48CE
:1019700040F29D21FEF7C0FC786800F053F87B68C8
:101980001A683B681B8A43F001039BB219463B6807
:101990009B7B002B02D04FF4806300E000230B43BD
:1019A0001A437B681A607B681A683B681B7D002BB2
:1019B00002D04FF0005300E000231A437B681A6006
:1019C0003B689B7C002B07D03B68DB7C43F010031B
:1019D000DBB21A467B689A653B681B7B43F48052F6
:1019E0007B685A603B685A683B689B687868114618
:1019F0001A46FFF75BFF3B685B7B002B02D07B68DE
:101A00001022DA603B681B781A467B68DA60083778
:101A1000BD4680BD00C0004000C4004000C800407A
:101A2000E428000080B582B000AF78607A68254B6A
:101A30009A4214D07A68244B9A4210D07A68234B89
:101A40009A420CD07A68224B9A4208D07A68214B8D
:101A50009A4204D0204840F27731FEF74DFC7B6873
:101A600040F6AA62DA607B6800221A607B6841F265
:101A700005025A607B6800229A607B6800225A61E6
:101A80007B680022DA647B6841F6F9729A647B68AD
:101A900000225A657A680B4B9A4202D17B68002279
:101AA0001A657B6800229A657A68074B9A4203D0D0
:101AB0007A68064B9A4202D17B680022DA650837C1
:101AC000BD4680BD00C0004000C4004000C80040CA
:101AD00000E0004000E40040E428000080B483B04F
:101AE00000AF786000BF7B681B6903F08003002BA8
:101AF000F9D07B68DB69DBB218460C37BD465DF870
:101B0000047B704780B483B000AF78600B46FB70F5
:101B100000BF7B681B6903F04003002BF9D0FA7803
:101B20007B685A630C37BD465DF8047B704700BF85
:101B3000064880470649074A074B9A42BEBF51F8FC
:101B4000040B42F8040BF8E7FEF7F2FAB11C0000B0
:101B5000B02900000000002074000020FEE700BF54
:101B600080B400AF044BDB6C1B0EDBB21846BD46E5
:101B70005DF8047B704700BFB081E00F80B582B094
:101B800000AF00F015F87860074B5B6803F00F03B7
:101B90007A6822FA03F37B60044B7A681A607B68E8
:101BA00018460837BD4680BD00800C40A4000020C8
:101BB00080B582B000AF334BDB6A03F47053B3F5EA
:101BC000805F0AD0B3F5005F03D0B3F5006F08D093
:101BD0000BE02D4B1B687B6047E04FF400437B60BC
:101BE00043E02A4B1B687B603FE0264BDB6803F435
:101BF000E063B3F5007F1BD0B3F5007F05D8002B61
:101C000024D0B3F5807F16D02BE0B3F5806F09D0D8
:101C1000B3F5A06F03D0B3F5407F06D021E01C4B95
:101C20007B6021E01B4B7B601EE01B4B7B601BE05D
:101C30001A4B7B6018E0FFF793FF0346122B02D983
:101C4000174B7B6010E0174B7B600DE0FFF788FFC0
:101C50000346122B02D9144B7B6005E0134B7B60CB
:101C600002E000237B6000BF00BF064B1B6803F44B
:101C7000E0339B0B01337A68B2FBF3F31846083765
:101C8000BD4680BD00800C40040000200000002004
:101C9000003FAB01406F4001809FD500C0D8A70036
:101CA00040B56400C0CF6A00804F120040420F0070
:101CB00080B400AFBD465DF8047B704780B400AFD0
:101CC0004FF400431846BD465DF8047B704700BFE3
:101CD00080B400AF4FF47A731846BD465DF8047BBC
:101CE000704700BF80B400AF034B1B681846BD4669
:101CF0005DF8047B704700BF0400002080B582B00F
:101D000000AF03463960FB71FB79002B1FD0FB79D4
:101D1000012B19D0FB79022B13D0FB79032B0DD0AB
:101D2000FB79042B07D0FB79052B02D141F6FF7319
:101D30000FE000230DE04FF6FF730AE04FF6FF734C
:101D400007E04FF6FF7304E04FF6FF7301E04FF634
:101D5000FF733A68134103F00103002B04D10B48D1
:101D600040F2C621FEF7C8FA0948FA793B6801211A
:101D700001FA03F319461346DB0013449B000344A6
:101D8000103359600837BD4680BD00BF34290000BC
:101D90000060004080B582B000AF03463960FB713F
:101DA000FB79002B1FD0FB79012B19D0FB79022B7B
:101DB00013D0FB79032B0DD0FB79042B07D0FB79D3
:101DC000052B02D141F6FF730FE000230DE04FF623
:101DD000FF730AE04FF6FF7307E04FF6FF7304E06E
:101DE0004FF6FF7301E04FF6FF733A68134103F0BB
:101DF0000103002B04D10B4840F2F321FEF77CFADB
:101E00000948FA793B68012101FA03F319461346A0
:101E1000DB0013449B000344103319600837BD46B0
:101E200080BD00BF342900000060004080B584B050
:101E300000AF78600023FB737B6803F00203002B84
:101E400009D0184B02221A60042000F033F800F089
:101E5000D9F80346FB737B6803F00103002B09D01C
:101E6000104B01221A60032000F024F800F0DEFA83
:101E70000346FB73FB7B83F00103DBB2002B00D036
:101E8000FEE70948002100F0A3F8084800F08AF8AE
:101E900003461A46064B1A80002318461037BD46E3
:101EA00080BD00BF90000020020000802C00008058
:101EB0009C00002080B584B000AF0346FB71002376
:101EC000FB602A480121FEF751FC294BFA791A7070
:101ED000FB79013B032B3FD801A252F823F000BF4E
:101EE000F11E00000B1F0000251F00003F1F000017
:101EF00001200F2104220123FFF71CFC03200D21E8
:101F000004220123FFF716FC2AE001200F210422FE
:101F10000023FFF70FFC03200D2104220023FFF70D
:101F200009FC1DE001200F2104220123FFF702FC20
:101F300003200D2104220023FFF7FCFB10E0012009
:101F40000F2104220023FFF7F5FB03200D210422BB
:101F50000123FFF7EFFB03E04FF0FF33FB6000BF0F
:101F6000FB6818461037BD4680BD00BF00D2040094
:101F70009400002080B582B000AF0346FB71FB796E
:101F8000002B04D00648012100F022F803E00448A9
:101F9000002100F01DF8002318460837BD4680BD1B
:101FA0001400008080B582B000AF7860074B1B68DA
:101FB000022B03D17B681B889BB203E0786800F09A
:101FC00059FA034618460837BD4680BD90000020E8
:101FD00080B582B000AF78600B467B80084B1B68F1
:101FE000022B03D17B687A881A8004E07B887868AA
:101FF000194600F07BFA002318460837BD4680BD1D
:102000009000002080B594B000AF3A4650231046AF
:1020100000211A4600F088FB0223FB6002233B618B
:102020000123BB610123BB63012387F84C30B9480E
:102030000121FEF79BFBB8480121FEF797FB00202A
:10204000002104220023FFF775FB00200121042258
:102050000023FFF76FFB0020022104220023FFF77B
:1020600069FB0020032104220023FFF763FB00200B
:10207000042104220023FFF75DFB00200521042238
:102080000023FFF757FB0020062104220023FFF75F
:1020900051FB00200F2104220023FFF74BFB0120FE
:1020A000002104220023FFF745FB01200121042227
:1020B0000023FFF73FFB0120022104220023FFF74A
:1020C00039FB0120032104220023FFF733FB012009
:1020D000042104220023FFF72DFB01200521042207
:1020E0000023FFF727FB0120062104220023FFF72E
:1020F00021FB0320092104220123FFF71BFB0320FE
:102100000A2104220123FFF715FB03200B210422DF
:102110000123FFF70FFB03200C2104220123FFF70B
:1021200009FB0420082104220023FFF703FB0420FD
:10213000092104220023FFF7FDFA04200A210422CA
:102140000023FFF7F7FA04200B2104220023FFF7F6
:10215000F1FA04200C2104220023FFF7EBFA0420FB
:102160000D2104220023FFF7E5FA04200E210422AA
:102170000023FFF7DFFA04200F2104220023FFF7DA
:10218000D9FA0520022101220023FFF7D3FA052006
:10219000082104220023FFF7CDFA0520092104229B
:1021A0000023FFF7C7FA02200B2104220023FFF7C8
:1021B000C1FA0520062104220023FFF7BBFA0520FF
:1021C000072104220023FFF7B5FA0823FB60082348
:1021D0003B6101233B700123BB700123FB71012391
:1021E0003B7200237B7201233B77012387F82D305C
:1021F0004FF400333B644FF4B8037B644FF08053DB
:10220000BB640023BB6100237B6104237B6200234A
:10221000BB6200233B6202237B630023BB6300237A
:102220003B633B461846FEF7CFFC0223FB600223CC
:102230003B6101233B700123BB700023FB71012331
:102240003B77002387F82D3001233B720323BB61CA
:1022500003237B6107237B620323BB6203233B626F
:1022600007237B630323BB6303233B633B4618467F
:10227000FEF7AAFC0423FB6004233B610123BB613E
:1022800001237B6107237B620323BB6203233B6241
:1022900002237B630123BB6301233B633B46184658
:1022A000FEF792FC1023FB6010233B6101233B707F
:1022B0000123BB700123FB7101233B77002387F8C7
:1022C0002D3001233B720023BB6100237B61062379
:1022D0007B620023BB6200233B6205237B630023F8
:1022E000BB6300233B633B461846FEF76DFC0120B1
:1022F000FFF740FE4FF000439B889AB24EF63273D0
:102300009A4201D0002300E0012318465037BD4611
:1023100080BD00BF0053020000D2040080B584B02D
:1023200000AF13460246FA710A46BA71BB8002201A
:102330000521FFF7E3FCFB7903F00303DAB2BB7975
:10234000DB00DBB21343DBB2DBB216481946FFF702
:10235000D9FB1448FFF7C2FBBB88DBB21148194612
:10236000FFF7D0FB0F48FFF7B9FB0346FB81BB88A3
:102370001B0A9BB2DBB20B481946FFF7C3FB0948A7
:10238000FFF7ACFB03461B029AB2FB8913439BB2D7
:10239000FB8102200521FFF7FDFCFB891846103761
:1023A000BD4680BD00C80040B0B586B000AF1A4B36
:1023B0003C461D460FCD0FC495E8030084E803009A
:1023C00016480121FEF7D2F902200221042200233F
:1023D000FFF7B0F90220032101220023FFF7AAF939
:1023E0000220042104220023FFF7A4F90220052182
:1023F00004220123FFF79EF9094B7B60094BBB6068
:102400003B4609481946FFF7A1FA074B0B225A65CC
:102410001837BD46B0BD00BF84290000002204006B
:10242000006CDC02C0CF6A0000C8004080B582B0FA
:1024300000AF0D480121FEF799F90C480121FEF784
:1024400095F9FFF7B1FF0A4800F014F80346FB8046
:10245000FA884EF632739A4201D0002300E001233D
:1024600018460837BD4680BD4081040000D20400F4
:102470000400008080B584B000AF78601A4B1B6800
:102480007A689A421AD07B689BB2002000211A46D3
:10249000FFF744FF7B681B0C9BB2DBB29BB20120B1
:1024A00000211A46FFF73AFF7B6803F040639B0E5A
:1024B0009BB2022000211A46FFF730FF03200121C2
:1024C0000022FFF72BFF0346FB810320012100229E
:1024D000FFF724FF0346FB81034B7A681A60FB89F0
:1024E00018461037BD4680BD9800002080B582B0E8
:1024F00000AF78600B467B80154B1B687A689A4268
:102500001AD07B689BB2002000211A46FFF706FF15
:102510007B681B0C9BB2DBB29BB2012000211A46E8
:10252000FFF7FCFE7B6803F040639B0E9BB202202A
:1025300000211A46FFF7F2FE7B88032000211A468D
:10254000FFF7ECFE024B7A681A600837BD4680BD83
:102550009800002080B582B000AF78607B689BB2A5
:1025600004481946FFF734FD002318460837BD46D6
:1025700080BD00BF0600008080B582B000AF3A4B3E
:10258000394A526C42F400525A64384B374AD2F8F6
:10259000202142F00402C3F82021344B334AD2F800
:1025A000202122F44072C3F82021304B2F4AD2F868
:1025B000B82022F47062C3F8B8202C4B2B4AD2F812
:1025C000B82042F48062C3F8B820274B10221A6268
:1025D00000BF254BDB6A03F02003002BF9D0244B0E
:1025E000234A126842F001021A60214B204AD26845
:1025F00042F08072DA601F4B1F4A1A604FF460206D
:10260000FEF726F9034603F5D52303F2FC437B606E
:102610007B68DA08194BA3FB02139B0A3B60184B3B
:102620003A68013A1A61164B0222C3F8F020144BA3
:102630004FF48072C3F804234FF06043114AC3F88B
:10264000B02F4FF06043104AC3F8802E4FF0604324
:102650004FF06042D2F8002E42F00102C3F8002E83
:102660000837BD4680BD00BF00800C4000600040C0
:10267000F0ED00E0001000E0FF130140179165024B
:10268000000004E055CEACC50900010080B582B061
:1026900000AF4FF07E637B607B681B68002B01D12D
:1026A000002302E0FFF768FF012318460837BD4604
:1026B00080BD00BF08B5074B044613B10021AFF33E
:1026C0000080054B1868836A03B19847204600F0E4
:1026D00033F800BF00000000A029000070B50E4BC9
:1026E0000E4D0024ED1AAD101E46AC4204D056F833
:1026F000242090470134F8E700F020F8084D094BFA
:102700000024ED1AAD101E46AC4204D056F8242029
:1027100090470134F8E770BD680000206800002091
:102720006C0000206800002002440346934202D05F
:1027300003F8011BFAE77047FEE700BFF8B500BFDA
:10274000F8BC08BC9E467047F8B500BFF8BC08BC92
:102750009E467047433A2F53696C69636F6E4C61B4
:1027600062732F53696D706C696369747953747502
:1027700064696F2F76332F646576656C6F70657250
:102780002F73646B732F65666D33322F76322F652E
:102790006D6C69622F696E632F656D5F636D752E59
:1027A00068000000433A2F53696C69636F6E4C6197
:1027B00062732F53696D706C6963697479537475B2
:1027C00064696F2F76332F646576656C6F70657200
:1027D0002F73646B732F65666D33322F76322F65DE
:1027E0006D6C69622F7372632F656D5F636D752EFB
:1027F00063000000433A2F53696C69636F6E4C614C
:1028000062732F53696D706C696369747953747561
:1028100064696F2F76332F646576656C6F706572AF
:102820002F73646B732F65666D33322F76322F658D
:102830006D6C69622F7372632F656D5F6562692EBF
:1028400063000000433A2F53696C69636F6E4C61FB
:1028500062732F53696D706C696369747953747511
:1028600064696F2F76332F646576656C6F7065725F
:102870002F73646B732F65666D33322F76322F653D
:102880006D6C69622F696E632F656D5F6770696F2C
:102890002E680000433A2F53696C69636F6E4C6178
:1028A00062732F53696D706C6963697479537475C1
:1028B00064696F2F76332F646576656C6F7065720F
:1028C0002F73646B732F65666D33322F76322F65ED
:1028D0006D6C69622F7372632F656D5F6770696FCE
:1028E0002E630000433A2F53696C69636F6E4C612D
:1028F00062732F53696D706C696369747953747571
:1029000064696F2F76332F646576656C6F706572BE
:102910002F73646B732F65666D33322F76322F659C
:102920006D6C69622F7372632F656D5F7573617271
:10293000742E6300433A2F53696C69636F6E4C6168
:1029400062732F53696D706C696369747953747520
:1029500064696F2F76332F646576656C6F7065726E
:102960002F73646B732F65666D33322F76322F654C
:102970006D6C69622F696E632F656D5F6770696F3B
:102980002E680000050000000000000040420F001B
:1029900005010000000000000000000043000000EE
:0829A000080000200000000007
:0829A80088D7FF7F0100000049
:1029B000006CDC020080000000000000000000004D
:1029C0000000000000000000000000000000000007
:1029D00000000000000000009C2900000000000032
:1029E00000000000000000000000000000000000E7
:1029F00000000000000000000000000000000000D7
:102A000000000000000000000000000000000000C6
:102A1000000000000000000001010000DD000000D7
:042A200000000000B2
:0400000300001B31AD
:00000001FF
