:1000000000000220152100004121000041210000D4
:100010004121000041210000412100004121000058
:100020004121000041210000412100004121000048
:100030004121000041210000412100004121000038
:100040004121000041210000412100004121000028
:100050004121000041210000412100004121000018
:100060004121000041210000412100004121000008
:1000700041210000412100004121000041210000F8
:1000800041210000412100004121000041210000E8
:100090004121000041210000E10400005D05000055
:1000A00041210000412100004121000041210000C8
:1000B00041210000412100004121000041210000B8
:1000C00041210000412100004121000041210000A8
:1000D00041210000412100004121000010B5054CE4
:1000E000237833B9044B13B10448AFF300800123E4
:1000F000237010BD90000020000000006834000054
:1001000008B5064B1BB106480649AFF30080064808
:10011000036813B1054B03B1984708BD0000000008
:1001200068340000940000208C00002000000000D3
:10013000154B002B08BF134B9D46A3F5803A0021B9
:100140008B460F461348144A121A02F0FFFF0F4B5A
:10015000002B00D098470E4B002B00D09847002072
:10016000002104000D000D48002802D00C48AFF318
:10017000008002F0C5FF2000290000F0B1F802F075
:10018000ABFF00BF000008000000022000000000DC
:100190000000000090000020E002002000000000AD
:1001A0000000000080B483B000AF0346FB71084B31
:1001B00097F907205209F97901F01F01012000FA8F
:1001C00001F143F822100C37BD465DF8047B7047FF
:1001D00000E100E080B483B000AF0346FB71094B3F
:1001E00097F907205209F97901F01F01012000FA5F
:1001F00001F1603243F822100C37BD465DF8047BF4
:10020000704700BF00E100E080B582B000AF0C4B4A
:100210001B687B603B46184601F0B2FC7B681B0EF6
:100220000F2B0AD93B78032B07D1064B054A1268DE
:1002300022F0500242F010021A600837BD4680BD1D
:10024000FC81E00FC0800C4080B400AF054B054A34
:10025000126922F004021A6130BFBD465DF8047BCA
:10026000704700BF00ED00E080B483B000AF78605D
:1002700039607B683A689A640C37BD465DF8047B48
:10028000704700BF80B483B000AF786039607B688E
:10029000DA6C3B68DB431A407B68DA640C37BD4696
:1002A0005DF8047B704700BF80B483B000AF786016
:1002B00039607B68DA6C3B681A437B68DA640C3718
:1002C000BD465DF8047B704780B483B000AF7860B2
:1002D0007B681B6C18460C37BD465DF8047B704785
:1002E00080B500AFFFF790FF00F0EAF800F038F8B3
:1002F000022002F0A3F80120012102F05BF902F0D4
:1003000087F829231248194600F08EF8FFF79CFF62
:10031000104B93F80C31DBB2002B08D00D4B0022B0
:1003200083F80C2113230C48194600F07DF8094B83
:10033000D3F80431013BDBB2064AD35CDBB22E2B8F
:1003400004D106480A2100F06FF8DFE7DEE700BFBE
:1003500078310000CC010020A4310000B831000049
:1003600080B500AF2D48012100F070FB012009216C
:100370000422012301F05CFB01200A210122002359
:1003800001F056FB264B00221A70254B00225A60C2
:10039000234B4FF4E1329A60214B00221A73204B19
:1003A00005225A731E4B0022DA811D4B4FF48052F6
:1003B0001A821B4B00229A74194B0022DA74184BD4
:1003C00000221A75174B1B681846154901F050FD9D
:1003D000144B1B68184641F6FF71FFF745FF114BA0
:1003E0001B6818460421FFF75FFF1620FFF7F2FE97
:1003F0001720FFF7EFFE1620FFF7D4FE1720FFF7B8
:10040000D1FE084B1B6840F203225A65054B1B685E
:100410001846052101F0F0FC80BD00BF00D20400A9
:10042000040000200000002080B584B000AF786098
:1004300039600023FB603B68B3F5807F00D937E06B
:100440001D4BD3F808213B681344B3F5807F08D9CE
:1004500000BF194BD3F808213B681344B3F5807FE4
:10046000F7D813E0144BD3F804317968FA680A44DA
:100470001178114AD154104BD3F804310133DAB258
:100480000D4BC3F80421FB680133FB60FA683B683D
:100490009A42E7D3084BD3F808213B681A44064B2D
:1004A000C3F80821054B1B6818460221FFF7FCFE24
:1004B0001037BD4680BD00BFAC000020000000200A
:1004C00080B500AF0448012100F0C0FA03480121C3
:1004D00000F0BCFA80BD00BF40810400004204006F
:1004E00080B582B000AF1A4B1B681B6903F0800314
:1004F000002B29D0164B1B68184601F0E1FD03467E
:10050000FB71144BD3F80431124AF979D154114BD1
:10051000D3F804310133DAB20E4BC3F804210D4B8A
:10052000D3F808315A1C0B4BC3F80821094BD3F8F8
:100530000831B3F5807F03D9064B012283F80C21E3
:1005400005480421FFF790FE0837BD4680BD00BF77
:1005500000000020CC01002000E4004080B500AF86
:100560001A48FFF7B1FE1A4B1B681B6903F04003E2
:10057000002B2AD0174BD3F80831002B1AD0144B7C
:100580001A68144BD3F800311249CB5CDBB2104629
:10059000194601F0A9FD0F4BD3F800310133DAB24F
:1005A0000C4BC3F800210B4BD3F808315A1E094BF2
:1005B000C3F80821074BD3F80831002B05D1044BB1
:1005C0001B6818460221FFF75DFE80BD00E4004075
:1005D00000000020AC00002080B483B000AF786041
:1005E0003960FEE780B487B000AFF860B9607A6028
:1005F000FB6803F10473DA00BB6813449B007B6162
:100600007B697A681A601C37BD465DF8047B7047C9
:1006100080B485B000AF786039607B6803F1047303
:10062000DA003B6813449B00FB60FB681B681846BC
:100630001437BD465DF8047B704700BF80B584B0B9
:1006400000AF78607B68002B03D07B68B3F5004F68
:1006500004D9084840F2C941FFF7BEFF7B68B3FAEE
:1006600083F3C3F11F03FB60FB6818461037BD46D8
:1006700080BD00BFC431000080B400AF044BDB6C10
:100680001B0EDBB21846BD465DF8047B704700BF09
:10069000B081E00F80B400AF054BDB6C03F47F0347
:1006A0001B0CDBB21846BD465DF8047B704700BFEB
:1006B000B081E00F80B582B000AFFFF7EBFF0346DB
:1006C0004A2B04D0792B02D0482B22D023E0164BA2
:1006D0001B699BB203F03F039BB21B02FB80124BD2
:1006E0009B699BB203F0F0039AB2FB881343FB8033
:1006F0000D4BDB6903F0F0031B099AB2FB8813432F
:10070000FB80FB88B3F5017F01D3084B08E0084B61
:1007100006E0074B04E007489A21FFF75DFF00233E
:1007200018460837BD4680BDD0FF0FE000366E0189
:100730000048E8011432000080B584B000AF786052
:1007400039607A683B689A4294BF00230123DBB288
:10075000FB6006481E21FA68FFF744FF04480821A1
:10076000FA68FFF73FFF1037BD4680BD00800C40A0
:1007700004800C4080B582B000AF0B481E21FFF70B
:1007800047FF786009480821FFF742FF38607A6820
:100790003B689A4203D00648D821FFF71DFF7B68CB
:1007A00018460837BD4680BD00800C4004800C40D0
:1007B0001432000080B582B000AF244B5B6903F4B3
:1007C000E063B3F5007F1CD0B3F5007F05D8002BA4
:1007D00025D0B3F5807F1FD02AE0B3F5C06F24D0B9
:1007E000B3F5E06F1ED0B3F5407F21D1FFF744FF92
:1007F0000346122B02D9164B7B6021E0154B7B6020
:100800001EE0FFF739FF0346122B02D9124B7B6023
:1008100016E0124B7B6013E0114B7B6010E0114B34
:100820007B600DE0104B7B600AE0104B7B6007E0C3
:100830000F484FF48D71FFF7CFFE00237B6000BFA0
:100840007B6818460837BD4680BD00BF00800C405D
:10085000804F120040420F0040B56400C0CF6A00D4
:10086000C0D8A700809FD500406F4001003FAB017A
:100870001432000080B582B000AF0F4800F04AFA91
:100880000346FB70FB78072B05D0082B07D101F03E
:1008900081FC78600BE0FFF78DFF786007E0074888
:1008A00040F24311FFF798FE00237B6000BF7B6896
:1008B00018460837BD4680BD06000C001432000003
:1008C00090B585B000AF78600023BB607B683B4A81
:1008D000934208D03A4A934205D03A484FF4F17116
:1008E000FFF77AFE00E000BF786800F013FA0346D5
:1008F000FB607B68314A934203D0314A934206D071
:100900000CE0314B9B6A03F00303FB600CE02E4BC1
:100910009B6A03F00C039B08FB6005E029484FF439
:100920000371FFF759FE00BFFB68032B39D801A202
:1009300052F823F06B090000450900004D09000042
:100940005509000001F0ACFCB86032E001F0BCFCDD
:10095000B8602EE001F004FC0446FFF70BFF0346ED
:10096000013324FA03F3BB6023E00023BB607A6801
:10097000124B9A4203D07A68114B9A4210D1124B13
:100980009A6A79680D4B994201D1102300E0142333
:1009900022FA03F3002B03D001F08CFCB86008E0CE
:1009A00007E0084840F23721FFF716FE0023BB603E
:1009B00000BFBB6818461437BD4690BD0200180042
:1009C00003001A001432000000800C4080B483B091
:1009D00000AF7860094B5B6D03F00103002B00D082
:1009E00006E000BF054B1A6D7B681340002BF9D160
:1009F0000C37BD465DF8047B704700BF00800C409B
:100A000080B582B000AF104800F084F90346FB7057
:100A1000FB78032B07D0082B09D0022B0BD101F058
:100A200053FC78600AE001F03BFC786006E001F0DE
:100A3000B1FB786002E000237B6000BF7B68184652
:100A40000837BD4680BD00BF0723200090B587B0A2
:100A500000AF78600B46FB7000233B617B681B0A8C
:100A600003F00F03013B092B37D801A252F823F002
:100A7000B50A0000BB0A0000990A0000DB0A00006A
:100A8000DB0A0000C10A0000CB0A0000DB0A0000FC
:100A9000DB0A0000D50A00001D4B7B611D4800F0F9
:100AA00047F80446FFF706FE034620461946FFF7BF
:100AB00043FE18E0184B7B6115E0184B7B6112E098
:100AC000174B7B6101233B610DE0164B7B611023CB
:100AD0003B6108E0144B7B6105E014484FF4BD61B5
:100AE000FFF77AFD10E07B681B0B03F01F03FB6030
:100AF0003B69002B02D03869FFF768FFFB78786903
:100B0000F9681A46FFF76EFD1C37BD4690BD00BF61
:100B100040800C400043020008800C4044800C40A0
:100B200058800C4060800C4078800C4014320000EB
:100B300090B585B000AF78607B6803F47813B3F5A7
:100B4000A01F00F0AB80B3F5A01F1AD8B3F5402F5B
:100B500000F0BF80B3F5402F08D8B3F5003F3CD07C
:100B6000B3F5802F2DD0002B27D0BEE0B3F5801F2A
:100B70003CD0B3F5901F47D0B3F5602F00F0AD80A7
:100B8000B3E0B3F5001F00F0AC80B3F5001F0AD846
:100B9000B3F5C01F25D0B3F5D01F7AD0B3F5B01F81
:100BA00000F08980A1E0B3F5181F4ED0B3F5201FE7
:100BB00062D0B3F5101F35D097E001F0EBFAF86082
:100BC0009BE001F0E7FAF8604E4B9B6803F00F03DF
:100BD000FA6822FA03F3FB608FE001F0C1FAF860D3
:100BE0008BE04948FFF76CFEF86086E04648FFF767
:100BF00067FEF860434B9B6E03F0F0031B09FA6835
:100C000022FA03F3FB6078E03F48FFF759FEF860F3
:100C10003C4B9B6E03F470631B0AFA6822FA03F3E1
:100C2000FB606AE03848FFF74BFEF860354B9B6E7F
:100C300003F440531C0B1020FFF700FD0346234430
:100C4000FA6822FA03F3FB6057E02F48FFF738FEFB
:100C5000F8602C4B9B6E03F440531B0BFA6822FA8E
:100C600003F3FB60274BDB6F03F007030133FA68E4
:100C7000B2FBF3F3FB6040E02348FFF721FEF8608E
:100C8000204B9B6E03F00303FA6822FA03F3FB6028
:100C900033E01E48FFF714FEF8602EE01B48FFF714
:100CA0000FFEF860174B1B6F03F00303FA6822FA7C
:100CB00003F3FB6021E01548FFF702FEF860114BDB
:100CC0001B6F03F030031B09FA6822FA03F3FB6081
:100CD00013E0FFF7CFFDF8600FE0FFF76BFDF86062
:100CE0000BE0FFF78DFEF86007E0094840F2AA61CB
:100CF000FFF772FC0023FB6000BFFB681846143747
:100D0000BD4690BD00800C400200180003001A0090
:100D10001432000080B584B000AF78600123FB730B
:100D20007B6803F00F03BB60BB68013B062B00F23E
:100D3000938001A252F823F0550D00008B0D0000A6
:100D4000C70D0000590E0000590E0000030E0000F0
:100D5000250E0000474BDB6A03F47053B3F5805F48
:100D600009D0B3F5005F03D0B3F5006F06D008E0FB
:100D70000223FB7308E00323FB7305E00423FB73EA
:100D800002E00523FB7300BF6EE03A4B9B6A03F061
:100D90000303022B06D0032B07D0012B08D103231A
:100DA000FB730FE00223FB730CE00623FB7309E0E7
:100DB000304B9B6A03F48033002B02D00923FB7372
:100DC00000E000BF50E02B4B9B6A03F00C03082BA4
:100DD00006D00C2B07D0042B08D10323FB730FE0A4
:100DE0000223FB730CE00623FB7309E0214B9B6A93
:100DF00003F48013002B02D00923FB7300E000BF33
:100E000032E01C4B1B6803F08053002B03D0B3F17E
:100E1000805F03D028E00723FB7302E00823FB7305
:100E200000BF21E0134BDB6A03F46033B3F5803F6E
:100E300008D0B3F5003F08D0B3F5004F08D1082320
:100E4000FB7308E00223FB7305E00323FB7302E05E
:100E50000123FB7300BF07E0074840F65211FFF77C
:100E6000BBFB0023FB7300BFFB7B18461037BD465E
:100E700080BD00BF00800C401432000080B487B0F9
:100E800000AFF860B9607A60FB6803F10473DA00C0
:100E9000BB6813449B007B617B697A681A601C37CE
:100EA000BD465DF8047B704780B584B000AF7860C4
:100EB000804B1B68FB60FB6843F08043FB607B68F2
:100EC000DA687B685B78104600211A4600F054FC13
:100ED0007B68DA687B689B78104601211A4600F02F
:100EE0004BFC7B68DA687B68DB78104602211A4687
:100EF00000F042FC7B68DA687B681B7910460321AE
:100F00001A4600F039FC7B68DA687B685B7910462A
:100F100004211A4600F030FC7B68DA687B689B7914
:100F2000104605211A4600F027FC7B68DB6803F0B9
:100F30000203002B29D0FA685F4B1340FB607B68EB
:100F40001B78FA681343FB607B685B7A1B04FA68C2
:100F50001343FB607B689B7A5B04FA681343FB6076
:100F60007B68DB791B06FA681343FB607B681B7A9E
:100F70001B03FA681343FB607B6893F84C30002B2B
:100F800003D0FB6843F48073FB607B68DB6803F08D
:100F90000403002B2AD0FA68484B1340FB607B689F
:100FA0001B789B00FA681343FB607B685B7A9B04A9
:100FB000FA681343FB607B689B7ADB04FA6813438F
:100FC000FB607B68DB795B06FA681343FB607B6838
:100FD0001B7A5B03FA681343FB607B6893F84C3021
:100FE000002B03D0FB6843F40073FB607B68DB6875
:100FF00003F00803002B2AD0FA68314B1340FB6042
:101000007B681B781B01FA681343FB607B685B7A83
:101010001B05FA681343FB607B689B7A5B05FA68E3
:101020001343FB607B68DB799B06FA681343FB6024
:101030007B681B7A9B03FA681343FB607B6893F819
:101040004C30002B03D0FB6843F48063FB607B686B
:10105000DB6803F01003002B36D0FA68194B1340FD
:10106000FB607B681B789B01FA681343FB607B681D
:101070005B7A9B05FA681343FB607B689B7ADB0510
:10108000FA681343FB607B68DB79DB06FA6813437D
:10109000FB607B681B7ADB03FA681343FB607B68A9
:1010A00093F84C30002B0FD0FB6843F40063FB60D7
:1010B0000AE000BF00800040FCEEFCFEF3DDF3FD23
:1010C000CFBBCFFB3F773FF77B68D8687B68196A57
:1010D0007B685A6A7B689B6A00F050F97B68D86825
:1010E0007B6893F82C107B6893F82D207B6893F82D
:1010F0002E3000F0C9F87B68D8687B68196B7B6874
:101100005A6B7B689B6B00F011FA7B68D9687B682F
:1011100093F83C207B6893F83D30084611461A4608
:1011200000F0A0F97B68D9687B685A697B689B6985
:10113000084611461A4600F0B7FA7B68DA687B6801
:101140001B7F1046194600F065FA2A4BFA681A60B0
:101150007B681B78032B17D801A252F823F000BF3D
:101160007D11000071110000711100007D1100005F
:10117000214805210122FFF781FE05E01E480521D7
:101180000022FFF77BFE00BF1A4B1A4A526922F475
:1011900040317A68126C0A435A61164B154A5269FB
:1011A00022F4F8017A68526C0A435A61114B114AD1
:1011B000526922F0E0417A68926C0A435A61FB68F6
:1011C00003F07063002B06D07B68DB790A480721A7
:1011D0001A46FFF753FE084800210122FFF74EFE92
:1011E0007B681B691846012100F016F81037BD46D0
:1011F00080BD00BF008000401480004080B400AF7C
:10120000044B00225A61034B00221A60BD465DF870
:10121000047B70470080004080B582B000AF7860EA
:101220000B46FB707B6803F00203002B05D0FB78B4
:10123000144801211A46FFF721FE7B6803F00403DE
:10124000002B05D0FB780F4802211A46FFF716FE47
:101250007B6803F00803002B05D0FB7809480321C5
:101260001A46FFF70BFE7B6803F01003002B05D036
:10127000FB78044804211A46FFF700FE0837BD46F4
:1012800080BD00BF1480004080B582B000AF7860A0
:10129000F970BA707B707B6823F01E03002B04D0BA
:1012A000314840F2E221FFF797F97B6803F002032F
:1012B000002B11D0FB782D481E211A46FFF7DEFDCA
:1012C000BB782A481D211A46FFF7D8FD7B782748AE
:1012D0001C211A46FFF7D2FD7B6803F00403002BA4
:1012E00011D0FB7822481E211A46FFF7C7FDBB78B4
:1012F0001F481D211A46FFF7C1FD7B781C481C21A1
:101300001A46FFF7BBFD7B6803F00803002B11D0E2
:10131000FB7818481E211A46FFF7B0FDBB78154828
:101320001D211A46FFF7AAFD7B7812481C211A4698
:10133000FFF7A4FD7B6803F01003002B11D0FB78AE
:101340000D481E211A46FFF799FDBB780A481D215A
:101350001A46FFF793FD7B7807481C211A46FFF7D2
:101360008DFD0837BD4680BD643200000880004016
:101370001C8000402C8000403C80004080B586B03E
:1013800000AFF860B9607A603B60FB6823F01E0331
:10139000002B04D0314840F21531FFF71DF9BB682E
:1013A000032B04DD2D484FF44671FFF715F97B68D8
:1013B0003F2B04DD294840F21931FFF70DF93B6856
:1013C000032B04DD254840F21A31FFF705F97B684D
:1013D0001A02BB681A433B681B0413437B61FB681A
:1013E00003F00203002B09D01D4A1D4B9B6823F01C
:1013F000031323F47C5379690B439360FB6803F078
:101400000403002B09D0164A154BDB6923F00313A4
:1014100023F47C5379690B43D361FB6803F0080321
:10142000002B09D00E4A0E4BDB6A23F0031323F482
:101430007C5379690B43D362FB6803F01003002BE4
:1014400009D0074A064BDB6B23F0031323F47C53CC
:1014500079690B43D3631837BD4680BD6432000001
:101460000080004080B582B000AF786013460A4625
:10147000FA70BB707B6823F01E03002B04D0264853
:101480004FF45571FFF7A8F87B6803F00203002BB7
:101490000BD0FB7821481D211A46FFF7EFFCBB78E3
:1014A0001E481C211A46FFF7E9FC7B6803F0040381
:1014B000002B0BD0FB781A481D211A46FFF7DEFCE3
:1014C000BB7817481C211A46FFF7D8FC7B6803F04D
:1014D0000803002B0BD0FB7812481D211A46FFF79A
:1014E000CDFCBB780F481C211A46FFF7C7FC7B6870
:1014F00003F01003002B0BD0FB780B481D211A467C
:10150000FFF7BCFCBB7808481C211A46FFF7B6FC65
:101510000837BD4680BD00BF643200000C8000402B
:1015200020800040308000404080004080B586B080
:1015300000AFF860B9607A603B60FB6823F01E037F
:10154000002B04D0314840F28331FFF745F8BB68E7
:10155000032B04DD2D4840F28631FFF73DF87B6810
:101560003F2B04DD294840F28731FFF735F83B680F
:10157000032B04DD25484FF46271FFF72DF87B68DB
:101580001A02BB681A433B681B0413437B61FB6868
:1015900003F00203002B09D01D4A1D4BDB6823F02A
:1015A000031323F47C5379690B43D360FB6803F086
:1015B0000403002B09D0164A154B1B6A23F00313B2
:1015C00023F47C5379690B431362FB6803F008032F
:1015D000002B09D00E4A0E4B1B6B23F0031323F490
:1015E0007C5379690B431363FB6803F01003002BF2
:1015F00009D0074A064B1B6C23F0031323F47C53DA
:1016000079690B4313641837BD4680BD643200000E
:101610000080004080B582B000AF78600B46FB7060
:101620007B6823F01E03002B04D01A4840F2BF3120
:10163000FEF7D2FF7B6803F00203002B05D0FB7896
:1016400015481C211A46FFF719FC7B6803F00403B8
:10165000002B05D0FB7811481C211A46FFF70EFC21
:101660007B6803F00803002B05D0FB780C481C2195
:101670001A46FFF703FC7B6803F01003002B05D02C
:10168000FB7808481C211A46FFF7F8FB0837BD46CF
:1016900080BD00BF6432000004800040188000401C
:1016A000288000403880004080B586B000AFF860E8
:1016B000B9607A60FB6823F01E03002B04D02C482D
:1016C00040F2E731FEF788FFBB68032B04DD2848B2
:1016D00040F2EA31FEF780FF7B68032B04DD2448EB
:1016E00040F2EB31FEF778FF7B681A02BB681343C8
:1016F0007B61FB6803F00203002B09D01D4A1D4BE0
:101700005B6823F4407323F0030379690B43536050
:10171000FB6803F00403002B09D0164A154B9B69A4
:1017200023F4407323F0030379690B439361FB684F
:1017300003F00803002B09D00E4A0E4B9B6A23F4DA
:10174000407323F0030379690B439362FB6803F052
:101750001003002B09D0074A064B9B6B23F4407300
:1017600023F0030379690B4393631837BD4680BDAB
:10177000643200000080004080B584B000AF786023
:1017800013460A46FA70BB700023FB600023BB605F
:101790007B6823F01E03002B04D0534840F2244101
:1017A000FEF71AFF98E07B6803F00203002B03D0DA
:1017B0004E4BBB600223FB607B6803F00403002BED
:1017C00003D04B4BBB600423FB607B6803F0080332
:1017D000002B03D0474BBB600823FB607B6803F002
:1017E0001003002B03D0444BBB601023FB60FB783D
:1017F0000A2B66D801A252F823F000BF2918000076
:101800003718000045180000531800006118000048
:101810006F1800007D1800008B1800009918000058
:10182000A7180000B5180000BB78B86804211A4654
:10183000FFF724FB4BE0BB78B86803211A46FFF79B
:101840001DFB44E0BB78B86802211A46FFF716FB7F
:101850003DE0BB78B86801211A46FFF70FFB36E080
:10186000BB78B86800211A46FFF708FB2FE0BB7869
:10187000B86805211A46FFF701FB28E0BB781F482E
:1018800004211A46FFF7FAFA21E0BB781B4803212E
:101890001A46FFF7F3FA1AE0BB78184802211A46F5
:1018A000FFF7ECFA13E0BB78144801211A46FFF762
:1018B000E5FA0CE0BB78114800211A46FFF7DEFA82
:1018C00005E0094840F26941FEF786FE00BFFB686B
:1018D000DB437A6813407B607B68002B7FF463AF47
:1018E0001037BD4680BD00BF64320000108000404C
:1018F0002480004034800040448000407C800040D0
:1019000080B582B000AF03463960FB71FB79002BD4
:101910001FD0FB79012B19D0FB79022B13D0FB7957
:10192000032B0DD0FB79042B07D0FB79052B02D1BB
:1019300041F6FF730FE000230DE04FF6FF730AE05E
:101940004FF6FF7307E04FF6FF7304E04FF6FF73A7
:1019500001E04FF6FF733A68134103F00103002BD7
:1019600004D10B4840F2C621FEF736FE0948FA7949
:101970003B68012101FA03F319461346DB001344C7
:101980009B000344103359600837BD4680BD00BF3B
:10199000B43200000060004080B582B000AF034662
:1019A0003960FB71FB79002B1FD0FB79012B19D01B
:1019B000FB79022B13D0FB79032B0DD0FB79042B81
:1019C00007D0FB79052B02D141F6FF730FE000230E
:1019D0000DE04FF6FF730AE04FF6FF7307E04FF696
:1019E000FF7304E04FF6FF7301E04FF6FF733A68B0
:1019F000134103F00103002B04D10B4840F2F32103
:101A0000FEF7EAFD0948FA793B68012101FA03F380
:101A100019461346DB0013449B000344103319603E
:101A20000837BD4680BD00BFB432000000600040F2
:101A300090B585B000AFB9607B600346FB73134679
:101A4000BB73FB7B002B1FD0FB7B012B19D0FB7BD7
:101A5000022B13D0FB7B032B0DD0FB7B042B07D079
:101A6000FB7B052B02D141F6FF730FE000230DE055
:101A70004FF6FF730AE04FF6FF7307E04FF6FF7370
:101A800004E04FF6FF7301E04FF6FF73BA681341AD
:101A900003F00103002B04D137484FF48771FEF7A0
:101AA0009BFDBB7B002B0DD07B68002B05D0FB7B07
:101AB0001846B968FFF770FF04E0FB7B1846B96869
:101AC000FFF71EFFBB68072B1DD82C48FA7B2B4C59
:101AD000F97B0B46DB000B449B0023445968BB6831
:101AE0009B000F2404FA03F3DB431940BC7BBB6863
:101AF0009B0004FA03F319431346DB0013449B00D5
:101B00000344596024E01D48FA7B1C4CF97B0B46CA
:101B1000DB000B449B00234408331968BB6803F1C6
:101B20008043083B9B000F2404FA03F3DB43194076
:101B3000BC7BBB6803F18043083B9B0004FA03F3C2
:101B400019431346DB0013449B0003440833196018
:101B5000BB7B002B0DD17B68002B05D0FB7B18468F
:101B6000B968FFF719FF04E0FB7B1846B968FFF777
:101B7000C7FE1437BD4690BD04330000006000402E
:101B800080B584B000AF78607B68002B03D11A4821
:101B90004121FEF721FD194B5B69DBB203F00F0316
:101BA000DBB29B00FB73154B1B6903F0C0039B0961
:101BB000DAB2FB7B1343FB737B68FA7B9A700F4BA3
:101BC0001B69DBB203F03F03DAB27B685A700B4B40
:101BD0009B69DBB223F00F03FB73084BDB6903F057
:101BE000F0031B09DAB2FB7B1343FB737B68FA7BC0
:101BF0001A701037BD4680BD54330000D0FF0FE08F
:101C000080B485B000AFF860B9607A60FB681A688C
:101C1000BB68DB431A407B681A43FB681A601437C1
:101C2000BD465DF8047B704780B586B000AFF860B4
:101C3000B9607A60FB707B68002B03D14248AF210A
:101C4000FEF7CAFCBB68002B03D14048FEF770FFCB
:101C5000B860FB78202B15D0202B02DC002B05D0A0
:101C600037E0402B1AD0602B27D032E0BB681A092E
:101C70007B689A4203D23448D721FEF7ADFC10238B
:101C80007B612BE0BB68DA087B689A4203D22E485E
:101C9000DC21FEF7A1FC08237B611FE0BA682C4B16
:101CA000A3FB02139A087B689A4203D22648E121DB
:101CB000FEF792FC06237B6110E0BB689A087B6804
:101CC0009A4203D22048E621FEF786FC04237B617A
:101CD00004E01D48EC21FEF77FFC32E0BB689A006F
:101CE0007B69796801FB03F35B0813443B617B6903
:101CF0007A6802FB03F33A69B2FBF3F33B613B6999
:101D0000043B3B613B699B013B613A69114B9A4241
:101D100004D90D484FF48171FEF75EFC3A690D4B12
:101D200013403B61FB681B6823F06002FB681A608C
:101D3000FB681A68FB781A43FB681A60FB683A690B
:101D40005A611837BD4680BDA833000040810400A9
:101D5000ABAAAAAAC0FF1F0080B586B000AFF8608A
:101D6000B9607A607B68002B04D1204840F2EB1107
:101D7000FEF732FCBB68002B03D11D48FEF7D8FEEE
:101D8000B860BB685B007B617A687B691344013B88
:101D90007B617A697B68B2FBF3F37B617B69043B0F
:101DA0007B617B699B017B617B69C0337B617B6964
:101DB00023F0FF037B617B6923F4FF1323F4FE53BD
:101DC000002B04D0094840F21121FEF705FC7A6986
:101DD000084B13407B61FB681433184605497A6948
:101DE000FFF70EFF1837BD4680BD00BFA8330000C7
:101DF00040810400C0FF1F0080B584B000AF786050
:101E00000B46FB707A68144B9A4214D07A68134BD5
:101E10009A4210D07A68124B9A420CD07A68114BD1
:101E20009A4208D07A68104B9A4204D00F484FF477
:101E30000C71FEF7D1FBFB78DB43FB60FB6803F022
:101E40000503FB60FB685A007B68DA60FA787B6800
:101E5000DA601037BD4680BD00C0004000C40040BD
:101E600000C8004000E0004000E40040A83300004B
:101E700080B582B000AF786039607A68264B9A42AC
:101E800014D07A68254B9A4210D07A68244B9A4233
:101E90000CD07A68234B9A4208D07A68224B9A4237
:101EA00004D022484FF41671FEF796FB786800F0D4
:101EB000ABF83B689B7C002B05D07B681B6843F02C
:101EC00080427B681A603B68DB7C002B07D03B6854
:101ED0001B7D43F01003DBB21A467B689A653B68B2
:101EE0005B7B1A463B681B8A1A433B68DB891A43B3
:101EF0007B685A603B6859683B689A683B681B7B03
:101F00007868FFF791FE3B681B781A467B68DA60B9
:101F10000837BD4680BD00BF00C0004000C400407F
:101F200000C8004000E0004000E40040A83300008A
:101F300080B582B000AF786039607A682E4B9A42E3
:101F40000CD07A682D4B9A4208D07A682C4B9A4272
:101F500004D02C4840F29D21FEF73EFB786800F04B
:101F600053F87B681A683B681B8A43F001039BB2F5
:101F700019463B689B7B002B02D04FF4806300E046
:101F800000230B431A437B681A607B681A683B681E
:101F90001B7D002B02D04FF0005300E000231A43BA
:101FA0007B681A603B689B7C002B07D03B68DB7C1E
:101FB00043F01003DBB21A467B689A653B681B7BD3
:101FC00043F480527B685A603B685A683B689B6860
:101FD000786811461A46FFF7BFFE3B685B7B002B13
:101FE00002D07B681022DA603B681B781A467B6857
:101FF000DA600837BD4680BD00C0004000C4004024
:1020000000C80040A833000080B582B000AF7860FF
:102010007A68254B9A4214D07A68244B9A4210D0A1
:102020007A68234B9A420CD07A68224B9A4208D0A5
:102030007A68214B9A4204D0204840F27731FEF76B
:10204000CBFA7B6840F6AA62DA607B6800221A60ED
:102050007B6841F205025A607B6800229A607B68C7
:1020600000225A617B680022DA647B6841F6F972CB
:102070009A647B6800225A657A680B4B9A4202D1B7
:102080007B6800221A657B6800229A657A68074B94
:102090009A4203D07A68064B9A4202D17B680022AA
:1020A000DA650837BD4680BD00C0004000C400406E
:1020B00000C8004000E0004000E40040A8330000F9
:1020C00080B483B000AF786000BF7B681B6903F009
:1020D0008003002BF9D07B68DB69DBB218460C3734
:1020E000BD465DF8047B704780B483B000AF786074
:1020F0000B46FB7000BF7B681B6903F04003002B9D
:10210000F9D0FA787B685A630C37BD465DF8047BDA
:10211000704700BF064880470649074A074B9A4266
:10212000BEBF51F8040B42F8040BF8E7FEF700F8C5
:102130009522000074340000000000209000002070
:10214000FEE700BF80B400AF044BDB6C1B0EDBB2BC
:102150001846BD465DF8047B704700BFB081E00FB4
:1021600080B582B000AF00F015F87860074B5B686F
:1021700003F00F037A6822FA03F37B60044B7A685A
:102180001A607B6818460837BD4680BD00800C4049
:10219000DC02002080B582B000AF334BDB6A03F471
:1021A0007053B3F5805F0AD0B3F5005F03D0B3F589
:1021B000006F08D00BE02D4B1B687B6047E04FF4AD
:1021C00000437B6043E02A4B1B687B603FE0264B6B
:1021D000DB6803F4E063B3F5007F1BD0B3F5007F49
:1021E00005D8002B24D0B3F5807F16D02BE0B3F5B3
:1021F000806F09D0B3F5A06F03D0B3F5407F06D050
:1022000021E01C4B7B6021E01B4B7B601EE01B4BE5
:102210007B601BE01A4B7B6018E0FFF793FF0346DF
:10222000122B02D9174B7B6010E0174B7B600DE03F
:10223000FFF788FF0346122B02D9144B7B6005E0A1
:10224000134B7B6002E000237B6000BF00BF064BA6
:102250001B6803F4E0339B0B01337A68B2FBF3F3A2
:1022600018460837BD4680BD00800C402000002085
:102270001C000020003FAB01406F4001809FD50053
:10228000C0D8A70040B56400C0CF6A00804F1200DC
:1022900040420F0080B400AFBD465DF8047B70473C
:1022A00080B400AF4FF400431846BD465DF8047B90
:1022B000704700BF80B400AF4FF47A731846BD4634
:1022C0005DF8047B704700BF80B400AF034B1B6810
:1022D0001846BD465DF8047B704700BF2000002013
:1022E00080B582B000AF03463960FB71FB79002BEB
:1022F0001FD0FB79012B19D0FB79022B13D0FB796E
:10230000032B0DD0FB79042B07D0FB79052B02D1D1
:1023100041F6FF730FE000230DE04FF6FF730AE074
:102320004FF6FF7307E04FF6FF7304E04FF6FF73BD
:1023300001E04FF6FF733A68134103F00103002BED
:1023400004D10B4840F2C621FEF746F90948FA7954
:102350003B68012101FA03F319461346DB001344DD
:102360009B000344103359600837BD4680BD00BF51
:10237000F83300000060004080B582B000AF034633
:102380003960FB71FB79002B1FD0FB79012B19D031
:10239000FB79022B13D0FB79032B0DD0FB79042B97
:1023A00007D0FB79052B02D141F6FF730FE0002324
:1023B0000DE04FF6FF730AE04FF6FF7307E04FF6AC
:1023C000FF7304E04FF6FF7301E04FF6FF733A68C6
:1023D000134103F00103002B04D10B4840F2F32119
:1023E000FEF7FAF80948FA793B68012101FA03F38C
:1023F00019461346DB0013449B0003441033196055
:102400000837BD4680BD00BFF833000000600040C3
:1024100080B500AF084B1B68022B01D100F088FA91
:10242000054B1B68012B01D100F026FD012000F0B7
:1024300049F80023184680BDBC01002080B584B057
:1024400000AF78600023FB737B6803F00203002B6E
:1024500009D0184B02221A60042000F033F800F073
:1024600039FB0346FB737B6803F00103002B09D0A3
:10247000104B01221A60032000F024F800F098FDB0
:102480000346FB73FB7B83F00103DBB2002B00D020
:10249000FEE70948002100F031FA084800F018FA78
:1024A00003461A46064B1A80002318461037BD46CD
:1024B00080BD00BFBC010020020000802C00008015
:1024C000C801002080B584B000AF0346FB71002333
:1024D000FB602A480121FEF7B9FA294BFA791A70F4
:1024E000FB79013B032B3FD801A252F823F000BF38
:1024F000012500001B250000352500004F250000A8
:1025000001200F2104220123FFF792FA03200D215D
:1025100004220123FFF78CFA2AE001200F21042274
:102520000023FFF785FA03200D2104220023FFF783
:102530007FFA1DE001200F2104220123FFF778FA22
:1025400003200D2104220023FFF772FA10E001207E
:102550000F2104220023FFF76BFA03200D21042230
:102560000123FFF765FA03E04FF0FF33FB6000BF84
:10257000FB6818461037BD4680BD00BF00D204007E
:10258000C001002080B582B000AF0346FB71FB792B
:10259000002B04D00648012100F0B0F903E0044804
:1025A000002100F0ABF9002318460837BD4680BD76
:1025B0001400008080B584B000AF02460B46FA716B
:1025C000BB71B14800F084F90346FB81BB79002B55
:1025D00000F0DD80FB790D2B00F26E8101A252F834
:1025E00023F000BF1D260000272600004126000022
:1025F0005B2600006526000095260000D526000019
:10260000DF260000FF260000092700001B2700002E
:102610003B2700005B27000065270000FB8943F48F
:102620000053FB81B2E0FB8923F40053FB81FB895B
:1026300023F40063FB81FB8943F48053FB81A5E015
:10264000FB8923F40053FB81FB8923F48053FB8136
:10265000FB8943F40063FB8198E0FB8943F48063CA
:10266000FB8193E0012000F06FFCFB8943F4807351
:10267000FB81FB8943F40073FB81FB8923F0040396
:10268000FB81FB8923F04003FB81FB8923F00203DC
:10269000FB817BE0002000F057FCFB8943F008033E
:1026A000FB81FB8943F01003FB81FB8943F48073BA
:1026B000FB81FB8923F40073FB81FB8923F0040376
:1026C000FB81FB8923F04003FB81FB8923F002039C
:1026D000FB815BE0FB8943F08003FB8156E0FB89D3
:1026E00043F04003FB81FB8923F48073FB81FB896A
:1026F00023F40073FB81032000F026FC46E0FB89F5
:1027000043F02003FB8141E0FB8923F01003FB81B0
:10271000FB8943F00803FB8138E0FB8943F00403A5
:10272000FB81FB8923F48073FB81FB8923F4007315
:10273000FB81032000F008FC28E0FB8943F0020342
:10274000FB81FB8923F48073FB81FB8923F40073F5
:10275000FB81032000F0F8FB18E0FB8943F0010344
:10276000FB8113E0022000F0EFFBFB8943F4807350
:10277000FB81FB8923F00403FB81FB8923F04003E9
:10278000FB81FB8923F00203FB8100BF94E0FB790E
:102790000D2B00F2918001A252F823F0D527000002
:1027A000DF270000F1270000032800000D280000AB
:1027B000252800004D28000057280000612800004F
:1027C0006B2800007D2800008D280000972800005D
:1027D000A1280000FB8923F40053FB816CE0FB89F6
:1027E00043F40053FB81FB8923F48053FB8163E0B6
:1027F000FB8943F40053FB81FB8923F40063FB81D5
:102800005AE0FB8923F48063FB8155E0FB8923F4C4
:102810008073FB81FB8923F40073FB81032000F0AC
:1028200093FB49E0FB8923F00803FB81FB8923F03C
:102830001003FB81FB8923F48073FB81FB8923F464
:102840000073FB81032000F07FFB35E0FB8923F060
:102850008003FB8130E0FB8923F04003FB812BE008
:10286000FB8923F02003FB8126E0FB8923F0100382
:10287000FB81FB8923F00803FB811DE0FB8923F02A
:102880000403FB8118E000BF18000080FB8923F0DF
:102890000203FB8110E0FB8923F00103FB810BE0C5
:1028A000FB8923F48073FB81FB8923F40073FB8194
:1028B000032000F049FB00BFFB890448194600F0E3
:1028C0001DF8002318461037BD4680BD1800008053
:1028D00080B582B000AF7860074B1B68022B03D134
:1028E0007B681B889BB203E0786800F085FB034699
:1028F00018460837BD4680BDBC01002080B582B0B7
:1029000000AF78600B467B80084B1B68022B03D11D
:102910007B687A881A8004E07B887868194600F022
:10292000A7FB002318460837BD4680BDBC01002028
:1029300080B500AF0020002100220023FFF778F8C7
:102940000020012100220023FFF772F8002002215D
:1029500000220023FFF76CF800200321002200234F
:10296000FFF766F80020042100220023FFF760F83B
:102970000020052100220023FFF75AF8002006213D
:1029800000220023FFF754F800200F21002200232B
:10299000FFF74EF80120002100220023FFF748F83E
:1029A0000120012100220023FFF742F8012002212B
:1029B00000220023FFF73CF801200321002200231E
:1029C000FFF736F80120042100220023FFF730F83A
:1029D0000120052100220023FFF72AF8012006210B
:1029E00000220023FFF724F80320092100220023FE
:1029F000FFF71EF803200A2100220023FFF718F832
:102A000003200B2100220023FFF712F803200C21E2
:102A100000220023FFF70CF80420082100220023E5
:102A2000FFF706F80420092100220023FFF700F831
:102A300004200A2100220023FEF7FAFF04200B21C4
:102A400000220023FEF7F4FF04200C2100220023C3
:102A5000FEF7EEFF04200D2100220023FEF7E8FF21
:102A600004200E2100220023FEF7E2FF04200F21A4
:102A700000220023FEF7DCFF0520022100220023B4
:102A8000FEF7D6FF0520082100220023FEF7D0FF25
:102A90000520092100220023FEF7CAFF02200B2196
:102AA00000220023FEF7C4FF052006210022002398
:102AB000FEF7BEFF0520072100220023FEF7B8FF26
:102AC000FEF79CFB02480021FDF7C0FF80BD00BF60
:102AD0000053020080B594B000AF3A465023104630
:102AE00000211A4600F032FB0223FB6002233B6107
:102AF0000123BB610123BB63012387F84C30B94834
:102B00000121FDF7A3FFB8480121FDF79FFF002039
:102B1000002104220023FEF78BFF00200121042264
:102B20000023FEF785FF0020022104220023FEF788
:102B30007FFF0020032104220023FEF779FF0020FD
:102B4000042104220023FEF773FF00200521042244
:102B50000023FEF76DFF0020062104220023FEF76C
:102B600067FF00200F2104220023FEF761FF0120F0
:102B7000002104220023FEF75BFF01200121042233
:102B80000023FEF755FF0120022104220023FEF757
:102B90004FFF0120032104220023FEF749FF0120FB
:102BA000042104220023FEF743FF01200521042213
:102BB0000023FEF73DFF0120062104220023FEF73B
:102BC00037FF0320092104220123FEF731FF0320F0
:102BD0000A2104220123FEF72BFF03200B210422EC
:102BE0000123FEF725FF03200C2104220123FEF719
:102BF0001FFF0420082104220023FEF719FF0420F0
:102C0000092104220023FEF713FF04200A210422D5
:102C10000023FEF70DFF04200B2104220023FEF702
:102C200007FF04200C2104220023FEF701FF0420EB
:102C30000D2104220023FEF7FBFE04200E210422B6
:102C40000023FEF7F5FE04200F2104220023FEF7E7
:102C5000EFFE0520022101220023FEF7E9FE0520F8
:102C6000082104220023FEF7E3FE052009210422A7
:102C70000023FEF7DDFE02200B2104220023FEF7D5
:102C8000D7FE0520062104220023FEF7D1FE0520F1
:102C9000072104220023FEF7CBFE0823FB60082354
:102CA0003B6101233B700123BB700123FB710123B6
:102CB0003B7200237B7201233B77012387F82D3081
:102CC0004FF400333B644FF4B8037B644FF0805300
:102CD000BB640023BB6100237B6104237B62002370
:102CE000BB6200233B6202237B630023BB630023A0
:102CF0003B633B461846FEF7D7F80223FB600223EE
:102D00003B6101233B700123BB700023FB71012356
:102D10003B77002387F82D3001233B720323BB61EF
:102D200003237B6107237B620323BB6203233B6294
:102D300007237B630323BB6303233B633B461846A4
:102D4000FEF7B2F80423FB6004233B610123BB615F
:102D500001237B6107237B620323BB6203233B6266
:102D600002237B630123BB6301233B633B4618467D
:102D7000FEF79AF81023FB6010233B6101233B70A0
:102D80000123BB700123FB7101233B77002387F8EC
:102D90002D3001233B720023BB6100237B6106239E
:102DA0007B620023BB6200233B6205237B6300231D
:102DB000BB6300233B633B461846FEF775F80120D2
:102DC000FFF7E0FB4FF000439B889AB24EF6327358
:102DD0009A4201D0002300E0012318465037BD4637
:102DE00080BD00BF0053020000D2040080B584B053
:102DF00000AF13460246FA710A46BA71BB80022040
:102E00000521FFF76DFAFB7903F00303DAB2BB7912
:102E1000DB00DBB21343DBB2DBB216481946FFF727
:102E200063F91448FFF74CF9BB88DBB21148194627
:102E3000FFF75AF90F48FFF743F90346FB81BB88B8
:102E40001B0A9BB2DBB20B481946FFF74DF9094844
:102E5000FFF736F903461B029AB2FB8913439BB274
:102E6000FB8102200521FFF787FAFB8918461037FE
:102E7000BD4680BD00C8004080B500AF0F48FFF7D9
:102E8000C3F80220022100220023FEF7D1FD022018
:102E9000032100220023FEF7CBFD022004210022A3
:102EA0000023FEF7C5FD0220052100220023FEF7C6
:102EB000BFFD03480021FDF7C9FD80BD00C80040EB
:102EC00000220400B0B586B000AF1A4B3C461D4648
:102ED0000FCD0FC495E8030084E8030016480121D4
:102EE000FDF7B4FD0220022104220023FEF7A0FD1D
:102EF0000220032101220023FEF79AFD0220042173
:102F000004220023FEF794FD022005210422012360
:102F1000FEF78EFD094B7B60094BBB603B460948C1
:102F20001946FFF705F8074B0B225A651837BD46BF
:102F3000B0BD00BF4834000000220400006CDC0279
:102F4000C0CF6A0000C8004080B582B000AF034621
:102F5000FB71FB79032B22D801A252F823F000BFAA
:102F6000712F00007B2F0000852F00008F2F0000A5
:102F70000C480021FFF7C2FC11E00A480121FFF7CD
:102F8000BDFC0CE007480221FFF7B8FC07E006484B
:102F9000FFF73AF805480021FDF758FD00BF083754
:102FA000BD4680BD1A00008000C40040001204002D
:102FB00080B582B000AF0D480121FDF747FD0C48F8
:102FC0000121FDF743FDFFF77DFF0A4800F014F8EB
:102FD0000346FB80FA884EF632739A4201D00023F2
:102FE00000E0012318460837BD4680BD408104003B
:102FF00000D204000400008080B584B000AF786087
:103000001A4B1B687A689A421AD07B689BB20020E0
:1030100000211A46FFF7EAFE7B681B0C9BB2DBB26D
:103020009BB2012000211A46FFF7E0FE7B6803F007
:1030300040639B0E9BB2022000211A46FFF7D6FE8A
:10304000032001210022FFF7D1FE0346FB8103206C
:1030500001210022FFF7CAFE0346FB81034B7A6879
:103060001A60FB8918461037BD4680BDC401002098
:1030700080B582B000AF78600B467B80154B1B6833
:103080007A689A421AD07B689BB2002000211A46C7
:10309000FFF7ACFE7B681B0C9BB2DBB29BB201203E
:1030A00000211A46FFF7A2FE7B6803F040639B0EE7
:1030B0009BB2022000211A46FFF798FE7B8803206E
:1030C00000211A46FFF792FE024B7A681A60083711
:1030D000BD4680BDC401002008B5074B044613B1AE
:1030E0000021AFF30080054B1868836A03B198474D
:1030F000204600F033F800BF0000000064340000F8
:1031000070B50E4B0E4D0024ED1AAD101E46AC42AC
:1031100004D056F8242090470134F8E700F020F856
:10312000084D094B0024ED1AAD101E46AC4204D0E8
:1031300056F8242090470134F8E770BD8400002041
:103140008400002088000020840000200244034600
:10315000934202D003F8011BFAE77047FEE700BF75
:10316000F8B500BFF8BC08BC9E467047F8B500BF74
:10317000F8BC08BC9E467047456E65726779204D65
:103180006963726F2052532D323332202D20506CE0
:10319000656173652070726573732061206B65795A
:1031A0000A0000000A2D2D2D5258204F5645524638
:1031B0004C4F572D2D2D0A0068656C6C6F2068618F
:1031C00068610000433A2F53696C69636F6E4C610C
:1031D00062732F53696D706C696369747953747588
:1031E00064696F2F76332F646576656C6F706572D6
:1031F0002F73646B732F65666D33322F76322F65B4
:103200006D6C69622F696E632F656D5F636D752EDE
:1032100068000000433A2F53696C69636F6E4C611C
:1032200062732F53696D706C696369747953747537
:1032300064696F2F76332F646576656C6F70657285
:103240002F73646B732F65666D33322F76322F6563
:103250006D6C69622F7372632F656D5F636D752E80
:1032600063000000433A2F53696C69636F6E4C61D1
:1032700062732F53696D706C6963697479537475E7
:1032800064696F2F76332F646576656C6F70657235
:103290002F73646B732F65666D33322F76322F6513
:1032A0006D6C69622F7372632F656D5F6562692E45
:1032B00063000000433A2F53696C69636F6E4C6181
:1032C00062732F53696D706C696369747953747597
:1032D00064696F2F76332F646576656C6F706572E5
:1032E0002F73646B732F65666D33322F76322F65C3
:1032F0006D6C69622F696E632F656D5F6770696FB2
:103300002E680000433A2F53696C69636F6E4C61FD
:1033100062732F53696D706C696369747953747546
:1033200064696F2F76332F646576656C6F70657294
:103330002F73646B732F65666D33322F76322F6572
:103340006D6C69622F7372632F656D5F6770696F53
:103350002E630000433A2F53696C69636F6E4C61B2
:1033600062732F53696D706C6963697479537475F6
:1033700064696F2F76332F646576656C6F70657244
:103380002F73646B732F65666D33322F76322F6522
:103390006D6C69622F7372632F656D5F73797374DF
:1033A000656D2E6300000000433A2F53696C69631A
:1033B0006F6E4C6162732F53696D706C69636974D1
:1033C0007953747564696F2F76332F646576656CF5
:1033D0006F7065722F73646B732F65666D33322F58
:1033E00076322F656D6C69622F7372632F656D5F26
:1033F00075736172742E6300433A2F53696C69636D
:103400006F6E4C6162732F53696D706C6963697480
:103410007953747564696F2F76332F646576656CA4
:103420006F7065722F73646B732F65666D33322F07
:1034300076322F656D6C69622F696E632F656D5FE3
:103440006770696F2E680000050000000000000032
:1034500040420F00050100000000000000000000D5
:0C346000430000002400002000000000D9
:08346C00C4CCFF7F0100000049
:1034740000E40040050000000000000000C201005C
:10348400000500000010000000000000006CDC02D9
:1034940000800000000000000000000000000000A8
:1034A4000000000000000000000000000000000018
:1034B4000000000060340000000000000000000074
:1034C40000000000000000000000000000000000F8
:1034D40000000000000000000000000000000000E8
:1034E40000000000000000000000000000000000D8
:1034F4000000000001010000DD00000000000000E9
:0400000300002115C3
:00000001FF
